20220628-14:05:01.436476000 : 8=FIX.4.0|9=63|35=A|34=1|49=CLIENT|52=20220628-14:02:15|56=SERVER|98=0|108=30|10=198|
20220629-08:37:33.074223000 : 8=FIX.4.0|9=63|35=A|34=1|49=CLIENT|52=20220629-08:12:31|56=SERVER|98=0|108=30|10=201|
20220629-09:21:00.335868000 : 8=FIX.4.0|9=63|35=A|34=1|49=CLIENT|52=20220629-09:21:00|56=SERVER|98=0|108=30|10=198|
20220629-09:22:00.673146000 : 8=FIX.4.0|9=63|35=A|34=1|49=CLIENT|52=20220629-09:22:00|56=SERVER|98=0|108=30|10=199|
20220629-09:23:00.948014000 : 8=FIX.4.0|9=63|35=A|34=1|49=CLIENT|52=20220629-09:23:00|56=SERVER|98=0|108=30|10=200|
20220629-09:24:00.783389000 : 8=FIX.4.0|9=63|35=A|34=1|49=CLIENT|52=20220629-09:24:00|56=SERVER|98=0|108=30|10=201|
20220629-09:25:00.836108000 : 8=FIX.4.0|9=63|35=A|34=1|49=CLIENT|52=20220629-09:25:00|56=SERVER|98=0|108=30|10=202|
