20220630-14:13:48.423342000 : 8=FIX.4.3|9=73|35=A|34=1|49=CLIENT|52=20220630-14:13:48.395|56=SERVER|98=0|108=30|141=Y|10=199|
20220630-14:13:58.320895000 : 8=FIX.4.3|9=73|35=A|34=1|49=CLIENT|52=20220630-14:13:58.288|56=SERVER|98=0|108=30|141=Y|10=201|
20220630-14:14:08.076328000 : 8=FIX.4.3|9=73|35=A|34=1|49=CLIENT|52=20220630-14:14:08.054|56=SERVER|98=0|108=30|141=Y|10=188|
20220630-14:14:18.702755000 : 8=FIX.4.3|9=73|35=A|34=1|49=CLIENT|52=20220630-14:14:18.661|56=SERVER|98=0|108=30|141=Y|10=193|
20220630-14:14:28.428075000 : 8=FIX.4.3|9=73|35=A|34=1|49=CLIENT|52=20220630-14:14:28.189|56=SERVER|98=0|108=30|141=Y|10=199|
20220630-14:14:38.743241000 : 8=FIX.4.3|9=73|35=A|34=1|49=CLIENT|52=20220630-14:14:38.710|56=SERVER|98=0|108=30|141=Y|10=190|
20220630-14:14:48.940011000 : 8=FIX.4.3|9=73|35=A|34=1|49=CLIENT|52=20220630-14:14:48.913|56=SERVER|98=0|108=30|141=Y|10=196|
20220630-14:14:58.462313000 : 8=FIX.4.3|9=73|35=A|34=1|49=CLIENT|52=20220630-14:14:58.107|56=SERVER|98=0|108=30|141=Y|10=192|
20220630-14:15:08.497698000 : 8=FIX.4.3|9=73|35=A|34=1|49=CLIENT|52=20220630-14:15:08.329|56=SERVER|98=0|108=30|141=Y|10=194|
20220630-14:15:18.434136000 : 8=FIX.4.3|9=73|35=A|34=1|49=CLIENT|52=20220630-14:15:18.237|56=SERVER|98=0|108=30|141=Y|10=193|
20220630-14:15:28.439808000 : 8=FIX.4.3|9=73|35=A|34=1|49=CLIENT|52=20220630-14:15:28.039|56=SERVER|98=0|108=30|141=Y|10=194|
20220630-14:15:38.750614000 : 8=FIX.4.3|9=73|35=A|34=1|49=CLIENT|52=20220630-14:15:38.729|56=SERVER|98=0|108=30|141=Y|10=201|
20220630-14:15:48.427079000 : 8=FIX.4.3|9=73|35=A|34=1|49=CLIENT|52=20220630-14:15:48.099|56=SERVER|98=0|108=30|141=Y|10=202|
20220630-14:15:58.556183000 : 8=FIX.4.3|9=73|35=A|34=1|49=CLIENT|52=20220630-14:15:58.519|56=SERVER|98=0|108=30|141=Y|10=200|
20220630-14:16:08.556184000 : 8=FIX.4.3|9=73|35=A|34=1|49=CLIENT|52=20220630-14:16:08.515|56=SERVER|98=0|108=30|141=Y|10=192|
20220630-14:16:18.486245000 : 8=FIX.4.3|9=73|35=A|34=1|49=CLIENT|52=20220630-14:16:18.432|56=SERVER|98=0|108=30|141=Y|10=191|
20220630-14:16:28.143555000 : 8=FIX.4.3|9=73|35=A|34=1|49=CLIENT|52=20220630-14:16:28.119|56=SERVER|98=0|108=30|141=Y|10=194|
20220630-14:16:38.458298000 : 8=FIX.4.3|9=73|35=A|34=1|49=CLIENT|52=20220630-14:16:38.409|56=SERVER|98=0|108=30|141=Y|10=197|
20220630-14:16:48.666188000 : 8=FIX.4.3|9=73|35=A|34=1|49=CLIENT|52=20220630-14:16:48.630|56=SERVER|98=0|108=30|141=Y|10=194|
20220630-14:16:58.764712000 : 8=FIX.4.3|9=73|35=A|34=1|49=CLIENT|52=20220630-14:16:58.712|56=SERVER|98=0|108=30|141=Y|10=196|
20220630-14:17:08.615232000 : 8=FIX.4.3|9=73|35=A|34=1|49=CLIENT|52=20220630-14:17:08.585|56=SERVER|98=0|108=30|141=Y|10=200|
20220630-14:20:09.991705000 : 8=FIX.4.3|9=73|35=A|34=1|49=CLIENT|52=20220630-14:20:05.008|56=SERVER|98=0|108=30|141=Y|10=181|
20220630-14:20:20.001577000 : 8=FIX.4.3|9=73|35=A|34=1|49=CLIENT|52=20220630-14:20:19.605|56=SERVER|98=0|108=30|141=Y|10=189|
20220630-14:20:45.008653000 : 8=FIX.4.3|9=73|35=A|34=1|49=CLIENT|52=20220630-14:20:40.766|56=SERVER|98=0|108=30|141=Y|10=191|
20220630-14:20:50.409038000 : 8=FIX.4.3|9=73|35=A|34=1|49=CLIENT|52=20220630-14:20:50.383|56=SERVER|98=0|108=30|141=Y|10=187|
20220630-14:21:00.642858000 : 8=FIX.4.3|9=73|35=A|34=1|49=CLIENT|52=20220630-14:21:00.168|56=SERVER|98=0|108=30|141=Y|10=184|
20220630-14:21:15.648421000 : 8=FIX.4.3|9=73|35=A|34=1|49=CLIENT|52=20220630-14:21:10.654|56=SERVER|98=0|108=30|141=Y|10=185|
20220630-14:21:35.891164000 : 8=FIX.4.3|9=73|35=A|34=1|49=CLIENT|52=20220630-14:21:30.350|56=SERVER|98=0|108=30|141=Y|10=180|
20220630-14:21:50.715640000 : 8=FIX.4.3|9=73|35=A|34=1|49=CLIENT|52=20220630-14:21:50.098|56=SERVER|98=0|108=30|141=Y|10=191|
20220630-14:22:00.742436000 : 8=FIX.4.3|9=73|35=A|34=1|49=CLIENT|52=20220630-14:22:00.136|56=SERVER|98=0|108=30|141=Y|10=180|
20220630-14:22:20.735551000 : 8=FIX.4.3|9=73|35=A|34=1|49=CLIENT|52=20220630-14:22:20.241|56=SERVER|98=0|108=30|141=Y|10=179|
20220630-14:22:35.744070000 : 8=FIX.4.3|9=73|35=A|34=1|49=CLIENT|52=20220630-14:22:30.223|56=SERVER|98=0|108=30|141=Y|10=180|
20220630-14:22:55.752101000 : 8=FIX.4.3|9=73|35=A|34=1|49=CLIENT|52=20220630-14:22:50.087|56=SERVER|98=0|108=30|141=Y|10=190|
20220630-14:23:40.765288000 : 8=FIX.4.3|9=73|35=A|34=1|49=CLIENT|52=20220630-14:23:35.841|56=SERVER|98=0|108=30|141=Y|10=192|
20220630-14:24:20.798072000 : 8=FIX.4.3|9=73|35=A|34=1|49=CLIENT|52=20220630-14:24:20.246|56=SERVER|98=0|108=30|141=Y|10=186|
20220630-14:24:30.802058000 : 8=FIX.4.3|9=73|35=A|34=1|49=CLIENT|52=20220630-14:24:30.541|56=SERVER|98=0|108=30|141=Y|10=185|
20220630-14:25:51.901509000 : 8=FIX.4.3|9=73|35=A|34=1|49=CLIENT|52=20220630-14:25:51.851|56=SERVER|98=0|108=30|141=Y|10=193|
